:100000000C942A000C9434000C9434000C943400AA
:100010000C9434000C9434000C9434000C94340090
:100020000C9434000C9434000C9434000C94340080
:100030000C9434000C9434000C9434000C94340070
:100040000C9434000C9434000C9434000C94340060
:100050000C94340011241FBECFE5D8E0DEBFCDBF25
:100060000E94A4000C94DE000C940000843040F543
:10007000683030F5423020F5813031F0813020F0A9
:10008000823011F08330F1F4442369F04130D1F42F
:100090002AB381E090E002C0880F991F6A95E2F7C9
:1000A000282B2ABB0BC02AB381E090E002C0880F46
:1000B000991F6A95E2F7809582238ABB81E00895B3
:1000C00080E0089581E00895843040F5683030F58F
:1000D000423020F5813031F0813020F0823011F053
:1000E0008330F1F4442369F04130D1F42BB381E043
:1000F00090E002C0880F991F6A95E2F7282B2BBB6E
:100100000BC02BB381E090E002C0880F991F6A9565
:10011000E2F7809582238BBB81E0089580E008950B
:1001200081E0089540E050E00BC020E030E00000A6
:100130002F5F3F4F63E0283E3607C9F74F5F5F4FA1
:100140004817590790F3089580E060E041E00E946D
:10015000360080E061E041E00E94360080E062E02D
:1001600041E00E94360080E062E041E00E946400CD
:1001700088E893E10E94920080E062E040E00E9403
:10018000640080E061E041E00E94640080ED97E05F
:100190000E94920080E061E040E00E94640080E004
:1001A00060E041E00E94640088E893E10E949200D0
:1001B00080E060E040E00E946400D5CFF894FFCF7B
:00000001FF
