:100000000C942A000C9434000C9434000C943400AA
:100010000C9434000C9434000C9434000C94340090
:100020000C9434000C9434000C9434000C94340080
:100030000C9434000C9434000C9434000C94340070
:100040000C9434000C9434000C9434000C94340060
:100050000C94340011241FBECFE5D8E0DEBFCDBF25
:100060000E94B8020C94F6020C940000DF93CF9328
:10007000CDB7DEB72E970FB6F894DEBF0FBECDBF5B
:100080008A836B834C8319828A81843008F00DC186
:100090008B81883008F009C18C81813021F08C81FE
:1000A000882309F002C18A81282F30E03E872D87FE
:1000B0008D859E858130910509F44FC02D853E8543
:1000C000223031052CF48D859E85009771F0EBC0B0
:1000D0002D853E852230310509F477C08D859E85BA
:1000E0008330910509F4A9C0DEC08C81282F30E04F
:1000F0003C872B878B859C850097D1F02B853C8591
:100100002130310509F0CFC0AAE3B0E0EAE3F0E026
:100110008081482F8B81282F30E081E090E0022EF3
:1001200002C0880F991F0A94E2F7842B8C93BBC0FE
:10013000AAE3B0E0EAE3F0E08081482F8B81282F2A
:1001400030E081E090E0022E02C0880F991F0A94EF
:10015000E2F7809584238C93A6C08C81282F30E011
:100160003A87298789859A850097D1F029853A852C
:100170002130310509F097C0AAE3B0E0EAE3F0E0EE
:100180008081482F8B81282F30E081E090E0022E83
:1001900002C0880F991F0A94E2F7842B8C9383C0C6
:1001A000AAE3B0E0EAE3F0E08081482F8B81282FBA
:1001B00030E081E090E0022E02C0880F991F0A947F
:1001C000E2F7809584238C936EC08C81282F30E0D9
:1001D00038872F838F8198850097D1F02F813885BC
:1001E0002130310509F05FC0AAE3B0E0EAE3F0E0B6
:1001F0008081482F8B81282F30E081E090E0022E13
:1002000002C0880F991F0A94E2F7842B8C934BC08D
:10021000AAE3B0E0EAE3F0E08081482F8B81282F49
:1002200030E081E090E0022E02C0880F991F0A940E
:10023000E2F7809584238C9336C08C81282F30E0A0
:100240003E832D838D819E810097C9F02D813E8153
:100250002130310541F5AAE3B0E0EAE3F0E0808126
:10026000482F8B81282F30E081E090E0022E02C0E1
:10027000880F991F0A94E2F7842B8C9314C0AAE389
:10028000B0E0EAE3F0E08081482F8B81282F30E056
:1002900081E090E0022E02C0880F991F0A94E2F7D5
:1002A000809584238C9381E0898389812E960FB673
:1002B000F894DEBF0FBECDBFCF91DF910895DF93DD
:1002C000CF93CDB7DEB72E970FB6F894DEBF0FBE33
:1002D000CDBF8A836B834C8319828A81843008F076
:1002E0000DC18B81883008F009C18C81813021F0EB
:1002F0008C81882309F002C18A81282F30E03E8753
:100300002D878D859E858130910509F44FC02D85FF
:100310003E85223031052CF48D859E85009771F045
:10032000EBC02D853E852230310509F477C08D85DF
:100330009E858330910509F4A9C0DEC08C81282FE9
:1003400030E03C872B878B859C850097D1F02B85EF
:100350003C852130310509F0CFC0ABE3B0E0EBE3E1
:10036000F0E08081482F8B81282F30E081E090E001
:10037000022E02C0880F991F0A94E2F7842B8C93F7
:10038000BBC0ABE3B0E0EBE3F0E08081482F8B81B2
:10039000282F30E081E090E0022E02C0880F991FE4
:1003A0000A94E2F7809584238C93A6C08C81282F31
:1003B00030E03A87298789859A850097D1F0298589
:1003C0003A852130310509F097C0ABE3B0E0EBE3AB
:1003D000F0E08081482F8B81282F30E081E090E091
:1003E000022E02C0880F991F0A94E2F7842B8C9387
:1003F00083C0ABE3B0E0EBE3F0E08081482F8B817A
:10040000282F30E081E090E0022E02C0880F991F73
:100410000A94E2F7809584238C936EC08C81282FF8
:1004200030E038872F838F8198850097D1F02F8116
:1004300038852130310509F05FC0ABE3B0E0EBE374
:10044000F0E08081482F8B81282F30E081E090E020
:10045000022E02C0880F991F0A94E2F7842B8C9316
:100460004BC0ABE3B0E0EBE3F0E08081482F8B8141
:10047000282F30E081E090E0022E02C0880F991F03
:100480000A94E2F7809584238C9336C08C81282FC0
:1004900030E03E832D838D819E810097C9F02D81B0
:1004A0003E812130310541F5ABE3B0E0EBE3F0E014
:1004B0008081482F8B81282F30E081E090E0022E50
:1004C00002C0880F991F0A94E2F7842B8C9314C002
:1004D000ABE3B0E0EBE3F0E08081482F8B81282F85
:1004E00030E081E090E0022E02C0880F991F0A944C
:1004F000E2F7809584238C9381E0898389812E960D
:100500000FB6F894DEBF0FBECDBFCF91DF91089537
:10051000DF93CF9300D000D000D0CDB7DEB79E835D
:100520008D831C821B8214C01A82198206C00000AF
:1005300089819A8101969A83898389819A8123E0AE
:10054000883E9207A0F38B819C8101969C838B83CC
:100550002B813C818D819E812817390728F32696AF
:100560000FB6F894DEBF0FBECDBFCF91DF910895D7
:10057000DF93CF93CDB7DEB780E060E041E00E942B
:10058000360080E061E041E00E94360080E062E0F9
:1005900041E00E94360080E062E041E00E945F019D
:1005A00088E893E10E94880280E062E040E00E94D7
:1005B0005F0180E061E041E00E945F0180ED97E033
:1005C0000E94880280E061E040E00E945F0180E0DC
:1005D00060E041E00E945F0188E893E10E948802A8
:1005E00080E060E040E00E945F01D5CFF894FFCF4B
:00000001FF
